:100000000C942A001895000018950000189500001F
:10001000189500001895000018950000189500002C
:10002000189500000C944F001895000018950000DA
:10003000189500001895000018950000189500000C
:1000400018950000189500001895000018950000FC
:10005000189500008FE58DBFC8E3E0E14E2E84E0E7
:100060008EBFD4E0F4E05F2EA89584B7082E877F7A
:1000700084BF88E1992781BD91BDEEEFF3E0A0E652
:10008000B0E088278D933197E9F7662483B78160C4
:1000900083BF79B7716079BF81EB82BF2DC00F93A9
:1000A0008F938FB78F93AF93BF939F93A0E6B0E0EA
:1000B0008D919C9101969C938E930027813090079F
:1000C00011F4959A0FC0903041F0803D07E0900701
:1000D00048F000270D930C9305C012969D91891747
:1000E00008F0959881EB82BF9F91BF91AF918F915E
:1000F0008FBF8F910F91189580E08093620080E010
:1001000090E0A3E6B0E08D939C93A0E3B0E00C9167
:1001100003FB81E00EF480E08F93A3E6B0E00D9145
:100120001C91003050E0150781E009F080E09F91BC
:100130008923882311F40C94AE00A2E6B0E08C91E0
:10014000865F8C9381E090E0A3E6B0E08D939C9372
:1001500084E690E00E94E0000C94D500A0E3B0E0BB
:100160000C9103FB81E00EF480E08F93A3E6B0E0F6
:100170000D911C91013050E0150781E009F080E0FD
:100180009F918923882311F40C94D500A2E6B0E056
:100190008C918A508C9380E090E0A3E6B0E08D9340
:1001A0009C9384E690E00E94E0000C9485003197D7
:1001B000F1F70895689462F80895E89462F8089554
:1001C000EF93FF93EE27E82BE92B31F0E0EDF7E01A
:0E01D0003197F1F70197D1F7FF91EF91089564
:00000001FF
